{
  "_format": "hh-sol-artifact-1",
  "contractName": "Create3Imp",
  "sourceName": "contracts/test_utils/Create3Imp.sol",
  "abi": [
    {
      "inputs": [],
      "name": "ErrorCreatingContract",
      "type": "error"
    },
    {
      "inputs": [],
      "name": "ErrorCreatingProxy",
      "type": "error"
    },
    {
      "inputs": [],
      "name": "TargetAlreadyExists",
      "type": "error"
    },
    {
      "inputs": [
        {
          "internalType": "bytes32",
          "name": "_salt",
          "type": "bytes32"
        }
      ],
      "name": "addressOf",
      "outputs": [
        {
          "internalType": "address",
          "name": "",
          "type": "address"
        }
      ],
      "stateMutability": "view",
      "type": "function"
    },
    {
      "inputs": [
        {
          "internalType": "bytes32",
          "name": "_salt",
          "type": "bytes32"
        },
        {
          "internalType": "bytes",
          "name": "_runtimeCode",
          "type": "bytes"
        }
      ],
      "name": "create",
      "outputs": [
        {
          "internalType": "address",
          "name": "addr",
          "type": "address"
        }
      ],
      "stateMutability": "payable",
      "type": "function"
    }
  ],
  "bytecode": "0x608060405234801561001057600080fd5b50610973806100206000396000f3fe6080604052600436106100295760003560e01c80635b37e1501461002e578063bb34534c1461005e575b600080fd5b610048600480360381019061004391906104da565b61009b565b6040516100559190610577565b60405180910390f35b34801561006a57600080fd5b5061008560048036038101906100809190610592565b6100b8565b6040516100929190610577565b60405180910390f35b60006100b0836100aa846100ca565b346100f6565b905092915050565b60006100c3826102b7565b9050919050565b60608151826040516020016100e0929190610722565b6040516020818303038152906040529050919050565b6000806040518060400160405280601081526020017f67363d3d37363d34f03d5260086018f300000000000000000000000000000000815250905061013a856102b7565b915060006101478361033f565b1461017e576040517fcd43efa100000000000000000000000000000000000000000000000000000000815260040160405180910390fd5b6000858251602084016000f59050600073ffffffffffffffffffffffffffffffffffffffff168173ffffffffffffffffffffffffffffffffffffffff1614156101f3576040517fbbd2fe8700000000000000000000000000000000000000000000000000000000815260040160405180910390fd5b60008173ffffffffffffffffffffffffffffffffffffffff16858760405161021b9190610760565b60006040518083038185875af1925050503d8060008114610258576040519150601f19603f3d011682016040523d82523d6000602084013e61025d565b606091505b50509050801580610276575060006102748561033f565b145b156102ad576040517f53de54b900000000000000000000000000000000000000000000000000000000815260040160405180910390fd5b5050509392505050565b60008030837f21c35dbe1b344a2488cf3321d6ce542f8e9f305544ff09e4993a62319a497c1f60001b6040516020016102f29392919061082c565b6040516020818303038152906040528051906020012060001c90508060405160200161031e919061090c565b6040516020818303038152906040528051906020012060001c915050919050565b6000813b9050919050565b6000604051905090565b600080fd5b600080fd5b6000819050919050565b6103718161035e565b811461037c57600080fd5b50565b60008135905061038e81610368565b92915050565b600080fd5b600080fd5b6000601f19601f8301169050919050565b7f4e487b7100000000000000000000000000000000000000000000000000000000600052604160045260246000fd5b6103e78261039e565b810181811067ffffffffffffffff82111715610406576104056103af565b5b80604052505050565b600061041961034a565b905061042582826103de565b919050565b600067ffffffffffffffff821115610445576104446103af565b5b61044e8261039e565b9050602081019050919050565b82818337600083830152505050565b600061047d6104788461042a565b61040f565b90508281526020810184848401111561049957610498610399565b5b6104a484828561045b565b509392505050565b600082601f8301126104c1576104c0610394565b5b81356104d184826020860161046a565b91505092915050565b600080604083850312156104f1576104f0610354565b5b60006104ff8582860161037f565b925050602083013567ffffffffffffffff8111156105205761051f610359565b5b61052c858286016104ac565b9150509250929050565b600073ffffffffffffffffffffffffffffffffffffffff82169050919050565b600061056182610536565b9050919050565b61057181610556565b82525050565b600060208201905061058c6000830184610568565b92915050565b6000602082840312156105a8576105a7610354565b5b60006105b68482850161037f565b91505092915050565b600081905092915050565b7f6300000000000000000000000000000000000000000000000000000000000000600082015250565b60006106006001836105bf565b915061060b826105ca565b600182019050919050565b600063ffffffff82169050919050565b60008160e01b9050919050565b600061063e82610626565b9050919050565b61065661065182610616565b610633565b82525050565b7f80600e6000396000f30000000000000000000000000000000000000000000000600082015250565b60006106926009836105bf565b915061069d8261065c565b600982019050919050565b600081519050919050565b600081905092915050565b60005b838110156106dc5780820151818401526020810190506106c1565b838111156106eb576000848401525b50505050565b60006106fc826106a8565b61070681856106b3565b93506107168185602086016106be565b80840191505092915050565b600061072d826105f3565b91506107398285610645565b60048201915061074882610685565b915061075482846106f1565b91508190509392505050565b600061076c82846106f1565b915081905092915050565b7fff00000000000000000000000000000000000000000000000000000000000000600082015250565b60006107ad6001836105bf565b91506107b882610777565b600182019050919050565b60008160601b9050919050565b60006107db826107c3565b9050919050565b60006107ed826107d0565b9050919050565b61080561080082610556565b6107e2565b82525050565b6000819050919050565b6108266108218261035e565b61080b565b82525050565b6000610837826107a0565b915061084382866107f4565b6014820191506108538285610815565b6020820191506108638284610815565b602082019150819050949350505050565b7fd694000000000000000000000000000000000000000000000000000000000000600082015250565b60006108aa6002836105bf565b91506108b582610874565b600282019050919050565b7f0100000000000000000000000000000000000000000000000000000000000000600082015250565b60006108f66001836105bf565b9150610901826108c0565b600182019050919050565b60006109178261089d565b915061092382846107f4565b601482019150610932826108e9565b91508190509291505056fea2646970667358221220b239992f6e67f90512ccb4abb08a8a2bd02f0becdd73b8ab7f3b776fb72e715564736f6c63430008090033",
  "linkReferences": {},
  "deployedLinkReferences": {}
}