{
  "contracts/test_utils/Create3Imp.sol": {
    "Create3Imp": {
      "abi": [
        {
          "inputs": [],
          "name": "ErrorCreatingContract",
          "type": "error"
        },
        {
          "inputs": [],
          "name": "ErrorCreatingProxy",
          "type": "error"
        },
        {
          "inputs": [],
          "name": "TargetAlreadyExists",
          "type": "error"
        },
        {
          "inputs": [
            {
              "internalType": "bytes32",
              "name": "_salt",
              "type": "bytes32"
            }
          ],
          "name": "addressOf",
          "outputs": [
            {
              "internalType": "address",
              "name": "",
              "type": "address"
            }
          ],
          "stateMutability": "view",
          "type": "function"
        },
        {
          "inputs": [
            {
              "internalType": "bytes32",
              "name": "_salt",
              "type": "bytes32"
            },
            {
              "internalType": "bytes",
              "name": "_runtimeCode",
              "type": "bytes"
            }
          ],
          "name": "create",
          "outputs": [
            {
              "internalType": "address",
              "name": "addr",
              "type": "address"
            }
          ],
          "stateMutability": "payable",
          "type": "function"
        }
      ],
      "evm": {
        "bytecode": {
          "linkReferences": {},
          "object": "608060405234801561001057600080fd5b50610973806100206000396000f3fe6080604052600436106100295760003560e01c80635b37e1501461002e578063bb34534c1461005e575b600080fd5b610048600480360381019061004391906104da565b61009b565b6040516100559190610577565b60405180910390f35b34801561006a57600080fd5b5061008560048036038101906100809190610592565b6100b8565b6040516100929190610577565b60405180910390f35b60006100b0836100aa846100ca565b346100f6565b905092915050565b60006100c3826102b7565b9050919050565b60608151826040516020016100e0929190610722565b6040516020818303038152906040529050919050565b6000806040518060400160405280601081526020017f67363d3d37363d34f03d5260086018f300000000000000000000000000000000815250905061013a856102b7565b915060006101478361033f565b1461017e576040517fcd43efa100000000000000000000000000000000000000000000000000000000815260040160405180910390fd5b6000858251602084016000f59050600073ffffffffffffffffffffffffffffffffffffffff168173ffffffffffffffffffffffffffffffffffffffff1614156101f3576040517fbbd2fe8700000000000000000000000000000000000000000000000000000000815260040160405180910390fd5b60008173ffffffffffffffffffffffffffffffffffffffff16858760405161021b9190610760565b60006040518083038185875af1925050503d8060008114610258576040519150601f19603f3d011682016040523d82523d6000602084013e61025d565b606091505b50509050801580610276575060006102748561033f565b145b156102ad576040517f53de54b900000000000000000000000000000000000000000000000000000000815260040160405180910390fd5b5050509392505050565b60008030837f21c35dbe1b344a2488cf3321d6ce542f8e9f305544ff09e4993a62319a497c1f60001b6040516020016102f29392919061082c565b6040516020818303038152906040528051906020012060001c90508060405160200161031e919061090c565b6040516020818303038152906040528051906020012060001c915050919050565b6000813b9050919050565b6000604051905090565b600080fd5b600080fd5b6000819050919050565b6103718161035e565b811461037c57600080fd5b50565b60008135905061038e81610368565b92915050565b600080fd5b600080fd5b6000601f19601f8301169050919050565b7f4e487b7100000000000000000000000000000000000000000000000000000000600052604160045260246000fd5b6103e78261039e565b810181811067ffffffffffffffff82111715610406576104056103af565b5b80604052505050565b600061041961034a565b905061042582826103de565b919050565b600067ffffffffffffffff821115610445576104446103af565b5b61044e8261039e565b9050602081019050919050565b82818337600083830152505050565b600061047d6104788461042a565b61040f565b90508281526020810184848401111561049957610498610399565b5b6104a484828561045b565b509392505050565b600082601f8301126104c1576104c0610394565b5b81356104d184826020860161046a565b91505092915050565b600080604083850312156104f1576104f0610354565b5b60006104ff8582860161037f565b925050602083013567ffffffffffffffff8111156105205761051f610359565b5b61052c858286016104ac565b9150509250929050565b600073ffffffffffffffffffffffffffffffffffffffff82169050919050565b600061056182610536565b9050919050565b61057181610556565b82525050565b600060208201905061058c6000830184610568565b92915050565b6000602082840312156105a8576105a7610354565b5b60006105b68482850161037f565b91505092915050565b600081905092915050565b7f6300000000000000000000000000000000000000000000000000000000000000600082015250565b60006106006001836105bf565b915061060b826105ca565b600182019050919050565b600063ffffffff82169050919050565b60008160e01b9050919050565b600061063e82610626565b9050919050565b61065661065182610616565b610633565b82525050565b7f80600e6000396000f30000000000000000000000000000000000000000000000600082015250565b60006106926009836105bf565b915061069d8261065c565b600982019050919050565b600081519050919050565b600081905092915050565b60005b838110156106dc5780820151818401526020810190506106c1565b838111156106eb576000848401525b50505050565b60006106fc826106a8565b61070681856106b3565b93506107168185602086016106be565b80840191505092915050565b600061072d826105f3565b91506107398285610645565b60048201915061074882610685565b915061075482846106f1565b91508190509392505050565b600061076c82846106f1565b915081905092915050565b7fff00000000000000000000000000000000000000000000000000000000000000600082015250565b60006107ad6001836105bf565b91506107b882610777565b600182019050919050565b60008160601b9050919050565b60006107db826107c3565b9050919050565b60006107ed826107d0565b9050919050565b61080561080082610556565b6107e2565b82525050565b6000819050919050565b6108266108218261035e565b61080b565b82525050565b6000610837826107a0565b915061084382866107f4565b6014820191506108538285610815565b6020820191506108638284610815565b602082019150819050949350505050565b7fd694000000000000000000000000000000000000000000000000000000000000600082015250565b60006108aa6002836105bf565b91506108b582610874565b600282019050919050565b7f0100000000000000000000000000000000000000000000000000000000000000600082015250565b60006108f66001836105bf565b9150610901826108c0565b600182019050919050565b60006109178261089d565b915061092382846107f4565b601482019150610932826108e9565b91508190509291505056fea2646970667358221220b239992f6e67f90512ccb4abb08a8a2bd02f0becdd73b8ab7f3b776fb72e715564736f6c63430008090033",
          "opcodes": "PUSH1 0x80 PUSH1 0x40 MSTORE CALLVALUE DUP1 ISZERO PUSH2 0x10 JUMPI PUSH1 0x0 DUP1 REVERT JUMPDEST POP PUSH2 0x973 DUP1 PUSH2 0x20 PUSH1 0x0 CODECOPY PUSH1 0x0 RETURN INVALID PUSH1 0x80 PUSH1 0x40 MSTORE PUSH1 0x4 CALLDATASIZE LT PUSH2 0x29 JUMPI PUSH1 0x0 CALLDATALOAD PUSH1 0xE0 SHR DUP1 PUSH4 0x5B37E150 EQ PUSH2 0x2E JUMPI DUP1 PUSH4 0xBB34534C EQ PUSH2 0x5E JUMPI JUMPDEST PUSH1 0x0 DUP1 REVERT JUMPDEST PUSH2 0x48 PUSH1 0x4 DUP1 CALLDATASIZE SUB DUP2 ADD SWAP1 PUSH2 0x43 SWAP2 SWAP1 PUSH2 0x4DA JUMP JUMPDEST PUSH2 0x9B JUMP JUMPDEST PUSH1 0x40 MLOAD PUSH2 0x55 SWAP2 SWAP1 PUSH2 0x577 JUMP JUMPDEST PUSH1 0x40 MLOAD DUP1 SWAP2 SUB SWAP1 RETURN JUMPDEST CALLVALUE DUP1 ISZERO PUSH2 0x6A JUMPI PUSH1 0x0 DUP1 REVERT JUMPDEST POP PUSH2 0x85 PUSH1 0x4 DUP1 CALLDATASIZE SUB DUP2 ADD SWAP1 PUSH2 0x80 SWAP2 SWAP1 PUSH2 0x592 JUMP JUMPDEST PUSH2 0xB8 JUMP JUMPDEST PUSH1 0x40 MLOAD PUSH2 0x92 SWAP2 SWAP1 PUSH2 0x577 JUMP JUMPDEST PUSH1 0x40 MLOAD DUP1 SWAP2 SUB SWAP1 RETURN JUMPDEST PUSH1 0x0 PUSH2 0xB0 DUP4 PUSH2 0xAA DUP5 PUSH2 0xCA JUMP JUMPDEST CALLVALUE PUSH2 0xF6 JUMP JUMPDEST SWAP1 POP SWAP3 SWAP2 POP POP JUMP JUMPDEST PUSH1 0x0 PUSH2 0xC3 DUP3 PUSH2 0x2B7 JUMP JUMPDEST SWAP1 POP SWAP2 SWAP1 POP JUMP JUMPDEST PUSH1 0x60 DUP2 MLOAD DUP3 PUSH1 0x40 MLOAD PUSH1 0x20 ADD PUSH2 0xE0 SWAP3 SWAP2 SWAP1 PUSH2 0x722 JUMP JUMPDEST PUSH1 0x40 MLOAD PUSH1 0x20 DUP2 DUP4 SUB SUB DUP2 MSTORE SWAP1 PUSH1 0x40 MSTORE SWAP1 POP SWAP2 SWAP1 POP JUMP JUMPDEST PUSH1 0x0 DUP1 PUSH1 0x40 MLOAD DUP1 PUSH1 0x40 ADD PUSH1 0x40 MSTORE DUP1 PUSH1 0x10 DUP2 MSTORE PUSH1 0x20 ADD PUSH32 0x67363D3D37363D34F03D5260086018F300000000000000000000000000000000 DUP2 MSTORE POP SWAP1 POP PUSH2 0x13A DUP6 PUSH2 0x2B7 JUMP JUMPDEST SWAP2 POP PUSH1 0x0 PUSH2 0x147 DUP4 PUSH2 0x33F JUMP JUMPDEST EQ PUSH2 0x17E JUMPI PUSH1 0x40 MLOAD PUSH32 0xCD43EFA100000000000000000000000000000000000000000000000000000000 DUP2 MSTORE PUSH1 0x4 ADD PUSH1 0x40 MLOAD DUP1 SWAP2 SUB SWAP1 REVERT JUMPDEST PUSH1 0x0 DUP6 DUP3 MLOAD PUSH1 0x20 DUP5 ADD PUSH1 0x0 CREATE2 SWAP1 POP PUSH1 0x0 PUSH20 0xFFFFFFFFFFFFFFFFFFFFFFFFFFFFFFFFFFFFFFFF AND DUP2 PUSH20 0xFFFFFFFFFFFFFFFFFFFFFFFFFFFFFFFFFFFFFFFF AND EQ ISZERO PUSH2 0x1F3 JUMPI PUSH1 0x40 MLOAD PUSH32 0xBBD2FE8700000000000000000000000000000000000000000000000000000000 DUP2 MSTORE PUSH1 0x4 ADD PUSH1 0x40 MLOAD DUP1 SWAP2 SUB SWAP1 REVERT JUMPDEST PUSH1 0x0 DUP2 PUSH20 0xFFFFFFFFFFFFFFFFFFFFFFFFFFFFFFFFFFFFFFFF AND DUP6 DUP8 PUSH1 0x40 MLOAD PUSH2 0x21B SWAP2 SWAP1 PUSH2 0x760 JUMP JUMPDEST PUSH1 0x0 PUSH1 0x40 MLOAD DUP1 DUP4 SUB DUP2 DUP6 DUP8 GAS CALL SWAP3 POP POP POP RETURNDATASIZE DUP1 PUSH1 0x0 DUP2 EQ PUSH2 0x258 JUMPI PUSH1 0x40 MLOAD SWAP2 POP PUSH1 0x1F NOT PUSH1 0x3F RETURNDATASIZE ADD AND DUP3 ADD PUSH1 0x40 MSTORE RETURNDATASIZE DUP3 MSTORE RETURNDATASIZE PUSH1 0x0 PUSH1 0x20 DUP5 ADD RETURNDATACOPY PUSH2 0x25D JUMP JUMPDEST PUSH1 0x60 SWAP2 POP JUMPDEST POP POP SWAP1 POP DUP1 ISZERO DUP1 PUSH2 0x276 JUMPI POP PUSH1 0x0 PUSH2 0x274 DUP6 PUSH2 0x33F JUMP JUMPDEST EQ JUMPDEST ISZERO PUSH2 0x2AD JUMPI PUSH1 0x40 MLOAD PUSH32 0x53DE54B900000000000000000000000000000000000000000000000000000000 DUP2 MSTORE PUSH1 0x4 ADD PUSH1 0x40 MLOAD DUP1 SWAP2 SUB SWAP1 REVERT JUMPDEST POP POP POP SWAP4 SWAP3 POP POP POP JUMP JUMPDEST PUSH1 0x0 DUP1 ADDRESS DUP4 PUSH32 0x21C35DBE1B344A2488CF3321D6CE542F8E9F305544FF09E4993A62319A497C1F PUSH1 0x0 SHL PUSH1 0x40 MLOAD PUSH1 0x20 ADD PUSH2 0x2F2 SWAP4 SWAP3 SWAP2 SWAP1 PUSH2 0x82C JUMP JUMPDEST PUSH1 0x40 MLOAD PUSH1 0x20 DUP2 DUP4 SUB SUB DUP2 MSTORE SWAP1 PUSH1 0x40 MSTORE DUP1 MLOAD SWAP1 PUSH1 0x20 ADD KECCAK256 PUSH1 0x0 SHR SWAP1 POP DUP1 PUSH1 0x40 MLOAD PUSH1 0x20 ADD PUSH2 0x31E SWAP2 SWAP1 PUSH2 0x90C JUMP JUMPDEST PUSH1 0x40 MLOAD PUSH1 0x20 DUP2 DUP4 SUB SUB DUP2 MSTORE SWAP1 PUSH1 0x40 MSTORE DUP1 MLOAD SWAP1 PUSH1 0x20 ADD KECCAK256 PUSH1 0x0 SHR SWAP2 POP POP SWAP2 SWAP1 POP JUMP JUMPDEST PUSH1 0x0 DUP2 EXTCODESIZE SWAP1 POP SWAP2 SWAP1 POP JUMP JUMPDEST PUSH1 0x0 PUSH1 0x40 MLOAD SWAP1 POP SWAP1 JUMP JUMPDEST PUSH1 0x0 DUP1 REVERT JUMPDEST PUSH1 0x0 DUP1 REVERT JUMPDEST PUSH1 0x0 DUP2 SWAP1 POP SWAP2 SWAP1 POP JUMP JUMPDEST PUSH2 0x371 DUP2 PUSH2 0x35E JUMP JUMPDEST DUP2 EQ PUSH2 0x37C JUMPI PUSH1 0x0 DUP1 REVERT JUMPDEST POP JUMP JUMPDEST PUSH1 0x0 DUP2 CALLDATALOAD SWAP1 POP PUSH2 0x38E DUP2 PUSH2 0x368 JUMP JUMPDEST SWAP3 SWAP2 POP POP JUMP JUMPDEST PUSH1 0x0 DUP1 REVERT JUMPDEST PUSH1 0x0 DUP1 REVERT JUMPDEST PUSH1 0x0 PUSH1 0x1F NOT PUSH1 0x1F DUP4 ADD AND SWAP1 POP SWAP2 SWAP1 POP JUMP JUMPDEST PUSH32 0x4E487B7100000000000000000000000000000000000000000000000000000000 PUSH1 0x0 MSTORE PUSH1 0x41 PUSH1 0x4 MSTORE PUSH1 0x24 PUSH1 0x0 REVERT JUMPDEST PUSH2 0x3E7 DUP3 PUSH2 0x39E JUMP JUMPDEST DUP2 ADD DUP2 DUP2 LT PUSH8 0xFFFFFFFFFFFFFFFF DUP3 GT OR ISZERO PUSH2 0x406 JUMPI PUSH2 0x405 PUSH2 0x3AF JUMP JUMPDEST JUMPDEST DUP1 PUSH1 0x40 MSTORE POP POP POP JUMP JUMPDEST PUSH1 0x0 PUSH2 0x419 PUSH2 0x34A JUMP JUMPDEST SWAP1 POP PUSH2 0x425 DUP3 DUP3 PUSH2 0x3DE JUMP JUMPDEST SWAP2 SWAP1 POP JUMP JUMPDEST PUSH1 0x0 PUSH8 0xFFFFFFFFFFFFFFFF DUP3 GT ISZERO PUSH2 0x445 JUMPI PUSH2 0x444 PUSH2 0x3AF JUMP JUMPDEST JUMPDEST PUSH2 0x44E DUP3 PUSH2 0x39E JUMP JUMPDEST SWAP1 POP PUSH1 0x20 DUP2 ADD SWAP1 POP SWAP2 SWAP1 POP JUMP JUMPDEST DUP3 DUP2 DUP4 CALLDATACOPY PUSH1 0x0 DUP4 DUP4 ADD MSTORE POP POP POP JUMP JUMPDEST PUSH1 0x0 PUSH2 0x47D PUSH2 0x478 DUP5 PUSH2 0x42A JUMP JUMPDEST PUSH2 0x40F JUMP JUMPDEST SWAP1 POP DUP3 DUP2 MSTORE PUSH1 0x20 DUP2 ADD DUP5 DUP5 DUP5 ADD GT ISZERO PUSH2 0x499 JUMPI PUSH2 0x498 PUSH2 0x399 JUMP JUMPDEST JUMPDEST PUSH2 0x4A4 DUP5 DUP3 DUP6 PUSH2 0x45B JUMP JUMPDEST POP SWAP4 SWAP3 POP POP POP JUMP JUMPDEST PUSH1 0x0 DUP3 PUSH1 0x1F DUP4 ADD SLT PUSH2 0x4C1 JUMPI PUSH2 0x4C0 PUSH2 0x394 JUMP JUMPDEST JUMPDEST DUP2 CALLDATALOAD PUSH2 0x4D1 DUP5 DUP3 PUSH1 0x20 DUP7 ADD PUSH2 0x46A JUMP JUMPDEST SWAP2 POP POP SWAP3 SWAP2 POP POP JUMP JUMPDEST PUSH1 0x0 DUP1 PUSH1 0x40 DUP4 DUP6 SUB SLT ISZERO PUSH2 0x4F1 JUMPI PUSH2 0x4F0 PUSH2 0x354 JUMP JUMPDEST JUMPDEST PUSH1 0x0 PUSH2 0x4FF DUP6 DUP3 DUP7 ADD PUSH2 0x37F JUMP JUMPDEST SWAP3 POP POP PUSH1 0x20 DUP4 ADD CALLDATALOAD PUSH8 0xFFFFFFFFFFFFFFFF DUP2 GT ISZERO PUSH2 0x520 JUMPI PUSH2 0x51F PUSH2 0x359 JUMP JUMPDEST JUMPDEST PUSH2 0x52C DUP6 DUP3 DUP7 ADD PUSH2 0x4AC JUMP JUMPDEST SWAP2 POP POP SWAP3 POP SWAP3 SWAP1 POP JUMP JUMPDEST PUSH1 0x0 PUSH20 0xFFFFFFFFFFFFFFFFFFFFFFFFFFFFFFFFFFFFFFFF DUP3 AND SWAP1 POP SWAP2 SWAP1 POP JUMP JUMPDEST PUSH1 0x0 PUSH2 0x561 DUP3 PUSH2 0x536 JUMP JUMPDEST SWAP1 POP SWAP2 SWAP1 POP JUMP JUMPDEST PUSH2 0x571 DUP2 PUSH2 0x556 JUMP JUMPDEST DUP3 MSTORE POP POP JUMP JUMPDEST PUSH1 0x0 PUSH1 0x20 DUP3 ADD SWAP1 POP PUSH2 0x58C PUSH1 0x0 DUP4 ADD DUP5 PUSH2 0x568 JUMP JUMPDEST SWAP3 SWAP2 POP POP JUMP JUMPDEST PUSH1 0x0 PUSH1 0x20 DUP3 DUP5 SUB SLT ISZERO PUSH2 0x5A8 JUMPI PUSH2 0x5A7 PUSH2 0x354 JUMP JUMPDEST JUMPDEST PUSH1 0x0 PUSH2 0x5B6 DUP5 DUP3 DUP6 ADD PUSH2 0x37F JUMP JUMPDEST SWAP2 POP POP SWAP3 SWAP2 POP POP JUMP JUMPDEST PUSH1 0x0 DUP2 SWAP1 POP SWAP3 SWAP2 POP POP JUMP JUMPDEST PUSH32 0x6300000000000000000000000000000000000000000000000000000000000000 PUSH1 0x0 DUP3 ADD MSTORE POP JUMP JUMPDEST PUSH1 0x0 PUSH2 0x600 PUSH1 0x1 DUP4 PUSH2 0x5BF JUMP JUMPDEST SWAP2 POP PUSH2 0x60B DUP3 PUSH2 0x5CA JUMP JUMPDEST PUSH1 0x1 DUP3 ADD SWAP1 POP SWAP2 SWAP1 POP JUMP JUMPDEST PUSH1 0x0 PUSH4 0xFFFFFFFF DUP3 AND SWAP1 POP SWAP2 SWAP1 POP JUMP JUMPDEST PUSH1 0x0 DUP2 PUSH1 0xE0 SHL SWAP1 POP SWAP2 SWAP1 POP JUMP JUMPDEST PUSH1 0x0 PUSH2 0x63E DUP3 PUSH2 0x626 JUMP JUMPDEST SWAP1 POP SWAP2 SWAP1 POP JUMP JUMPDEST PUSH2 0x656 PUSH2 0x651 DUP3 PUSH2 0x616 JUMP JUMPDEST PUSH2 0x633 JUMP JUMPDEST DUP3 MSTORE POP POP JUMP JUMPDEST PUSH32 0x80600E6000396000F30000000000000000000000000000000000000000000000 PUSH1 0x0 DUP3 ADD MSTORE POP JUMP JUMPDEST PUSH1 0x0 PUSH2 0x692 PUSH1 0x9 DUP4 PUSH2 0x5BF JUMP JUMPDEST SWAP2 POP PUSH2 0x69D DUP3 PUSH2 0x65C JUMP JUMPDEST PUSH1 0x9 DUP3 ADD SWAP1 POP SWAP2 SWAP1 POP JUMP JUMPDEST PUSH1 0x0 DUP2 MLOAD SWAP1 POP SWAP2 SWAP1 POP JUMP JUMPDEST PUSH1 0x0 DUP2 SWAP1 POP SWAP3 SWAP2 POP POP JUMP JUMPDEST PUSH1 0x0 JUMPDEST DUP4 DUP2 LT ISZERO PUSH2 0x6DC JUMPI DUP1 DUP3 ADD MLOAD DUP2 DUP5 ADD MSTORE PUSH1 0x20 DUP2 ADD SWAP1 POP PUSH2 0x6C1 JUMP JUMPDEST DUP4 DUP2 GT ISZERO PUSH2 0x6EB JUMPI PUSH1 0x0 DUP5 DUP5 ADD MSTORE JUMPDEST POP POP POP POP JUMP JUMPDEST PUSH1 0x0 PUSH2 0x6FC DUP3 PUSH2 0x6A8 JUMP JUMPDEST PUSH2 0x706 DUP2 DUP6 PUSH2 0x6B3 JUMP JUMPDEST SWAP4 POP PUSH2 0x716 DUP2 DUP6 PUSH1 0x20 DUP7 ADD PUSH2 0x6BE JUMP JUMPDEST DUP1 DUP5 ADD SWAP2 POP POP SWAP3 SWAP2 POP POP JUMP JUMPDEST PUSH1 0x0 PUSH2 0x72D DUP3 PUSH2 0x5F3 JUMP JUMPDEST SWAP2 POP PUSH2 0x739 DUP3 DUP6 PUSH2 0x645 JUMP JUMPDEST PUSH1 0x4 DUP3 ADD SWAP2 POP PUSH2 0x748 DUP3 PUSH2 0x685 JUMP JUMPDEST SWAP2 POP PUSH2 0x754 DUP3 DUP5 PUSH2 0x6F1 JUMP JUMPDEST SWAP2 POP DUP2 SWAP1 POP SWAP4 SWAP3 POP POP POP JUMP JUMPDEST PUSH1 0x0 PUSH2 0x76C DUP3 DUP5 PUSH2 0x6F1 JUMP JUMPDEST SWAP2 POP DUP2 SWAP1 POP SWAP3 SWAP2 POP POP JUMP JUMPDEST PUSH32 0xFF00000000000000000000000000000000000000000000000000000000000000 PUSH1 0x0 DUP3 ADD MSTORE POP JUMP JUMPDEST PUSH1 0x0 PUSH2 0x7AD PUSH1 0x1 DUP4 PUSH2 0x5BF JUMP JUMPDEST SWAP2 POP PUSH2 0x7B8 DUP3 PUSH2 0x777 JUMP JUMPDEST PUSH1 0x1 DUP3 ADD SWAP1 POP SWAP2 SWAP1 POP JUMP JUMPDEST PUSH1 0x0 DUP2 PUSH1 0x60 SHL SWAP1 POP SWAP2 SWAP1 POP JUMP JUMPDEST PUSH1 0x0 PUSH2 0x7DB DUP3 PUSH2 0x7C3 JUMP JUMPDEST SWAP1 POP SWAP2 SWAP1 POP JUMP JUMPDEST PUSH1 0x0 PUSH2 0x7ED DUP3 PUSH2 0x7D0 JUMP JUMPDEST SWAP1 POP SWAP2 SWAP1 POP JUMP JUMPDEST PUSH2 0x805 PUSH2 0x800 DUP3 PUSH2 0x556 JUMP JUMPDEST PUSH2 0x7E2 JUMP JUMPDEST DUP3 MSTORE POP POP JUMP JUMPDEST PUSH1 0x0 DUP2 SWAP1 POP SWAP2 SWAP1 POP JUMP JUMPDEST PUSH2 0x826 PUSH2 0x821 DUP3 PUSH2 0x35E JUMP JUMPDEST PUSH2 0x80B JUMP JUMPDEST DUP3 MSTORE POP POP JUMP JUMPDEST PUSH1 0x0 PUSH2 0x837 DUP3 PUSH2 0x7A0 JUMP JUMPDEST SWAP2 POP PUSH2 0x843 DUP3 DUP7 PUSH2 0x7F4 JUMP JUMPDEST PUSH1 0x14 DUP3 ADD SWAP2 POP PUSH2 0x853 DUP3 DUP6 PUSH2 0x815 JUMP JUMPDEST PUSH1 0x20 DUP3 ADD SWAP2 POP PUSH2 0x863 DUP3 DUP5 PUSH2 0x815 JUMP JUMPDEST PUSH1 0x20 DUP3 ADD SWAP2 POP DUP2 SWAP1 POP SWAP5 SWAP4 POP POP POP POP JUMP JUMPDEST PUSH32 0xD694000000000000000000000000000000000000000000000000000000000000 PUSH1 0x0 DUP3 ADD MSTORE POP JUMP JUMPDEST PUSH1 0x0 PUSH2 0x8AA PUSH1 0x2 DUP4 PUSH2 0x5BF JUMP JUMPDEST SWAP2 POP PUSH2 0x8B5 DUP3 PUSH2 0x874 JUMP JUMPDEST PUSH1 0x2 DUP3 ADD SWAP1 POP SWAP2 SWAP1 POP JUMP JUMPDEST PUSH32 0x100000000000000000000000000000000000000000000000000000000000000 PUSH1 0x0 DUP3 ADD MSTORE POP JUMP JUMPDEST PUSH1 0x0 PUSH2 0x8F6 PUSH1 0x1 DUP4 PUSH2 0x5BF JUMP JUMPDEST SWAP2 POP PUSH2 0x901 DUP3 PUSH2 0x8C0 JUMP JUMPDEST PUSH1 0x1 DUP3 ADD SWAP1 POP SWAP2 SWAP1 POP JUMP JUMPDEST PUSH1 0x0 PUSH2 0x917 DUP3 PUSH2 0x89D JUMP JUMPDEST SWAP2 POP PUSH2 0x923 DUP3 DUP5 PUSH2 0x7F4 JUMP JUMPDEST PUSH1 0x14 DUP3 ADD SWAP2 POP PUSH2 0x932 DUP3 PUSH2 0x8E9 JUMP JUMPDEST SWAP2 POP DUP2 SWAP1 POP SWAP3 SWAP2 POP POP JUMP INVALID LOG2 PUSH5 0x6970667358 0x22 SLT KECCAK256 0xB2 CODECOPY SWAP10 0x2F PUSH15 0x67F90512CCB4ABB08A8A2BD02F0BEC 0xDD PUSH20 0xB8AB7F3B776FB72E715564736F6C634300080900 CALLER "
        },
        "methodIdentifiers": {
          "addressOf(bytes32)": "bb34534c",
          "create(bytes32,bytes)": "5b37e150"
        }
      }
    }
  }
}