{
  "_format": "hh-sol-artifact-1",
  "contractName": "OgCreates",
  "sourceName": "contracts/test_utils/OgCreates.sol",
  "abi": [
    {
      "inputs": [],
      "name": "ErrorDeployingContract",
      "type": "error"
    },
    {
      "inputs": [
        {
          "internalType": "bytes",
          "name": "_code",
          "type": "bytes"
        }
      ],
      "name": "create1",
      "outputs": [],
      "stateMutability": "nonpayable",
      "type": "function"
    },
    {
      "inputs": [
        {
          "internalType": "bytes",
          "name": "_code",
          "type": "bytes"
        },
        {
          "internalType": "bytes32",
          "name": "_salt",
          "type": "bytes32"
        }
      ],
      "name": "create2",
      "outputs": [],
      "stateMutability": "nonpayable",
      "type": "function"
    }
  ],
  "bytecode": "0x608060405234801561001057600080fd5b50610560806100206000396000f3fe608060405234801561001057600080fd5b50600436106100365760003560e01c80638c0b8db21461003b578063f1cedc5f14610057575b600080fd5b610055600480360381019061005091906102dc565b610073565b005b610071600480360381019061006c919061033c565b610140565b005b60006100c284848080601f016020809104026020016040519081016040528093929190818152602001838380828437600081840152601f19601f8201169050808301925050505050505061020b565b90506000828251602084016000f59050600073ffffffffffffffffffffffffffffffffffffffff168173ffffffffffffffffffffffffffffffffffffffff161415610139576040517f75f3e2e000000000000000000000000000000000000000000000000000000000815260040160405180910390fd5b5050505050565b600061018f83838080601f016020809104026020016040519081016040528093929190818152602001838380828437600081840152601f19601f8201169050808301925050505050505061020b565b905060008151602083016000f09050600073ffffffffffffffffffffffffffffffffffffffff168173ffffffffffffffffffffffffffffffffffffffff161415610205576040517f75f3e2e000000000000000000000000000000000000000000000000000000000815260040160405180910390fd5b50505050565b60608151826040516020016102219291906104ec565b6040516020818303038152906040529050919050565b600080fd5b600080fd5b600080fd5b600080fd5b600080fd5b60008083601f84011261026657610265610241565b5b8235905067ffffffffffffffff81111561028357610282610246565b5b60208301915083600182028301111561029f5761029e61024b565b5b9250929050565b6000819050919050565b6102b9816102a6565b81146102c457600080fd5b50565b6000813590506102d6816102b0565b92915050565b6000806000604084860312156102f5576102f4610237565b5b600084013567ffffffffffffffff8111156103135761031261023c565b5b61031f86828701610250565b93509350506020610332868287016102c7565b9150509250925092565b6000806020838503121561035357610352610237565b5b600083013567ffffffffffffffff8111156103715761037061023c565b5b61037d85828601610250565b92509250509250929050565b600081905092915050565b7f6300000000000000000000000000000000000000000000000000000000000000600082015250565b60006103ca600183610389565b91506103d582610394565b600182019050919050565b600063ffffffff82169050919050565b60008160e01b9050919050565b6000610408826103f0565b9050919050565b61042061041b826103e0565b6103fd565b82525050565b7f80600e6000396000f30000000000000000000000000000000000000000000000600082015250565b600061045c600983610389565b915061046782610426565b600982019050919050565b600081519050919050565b600081905092915050565b60005b838110156104a657808201518184015260208101905061048b565b838111156104b5576000848401525b50505050565b60006104c682610472565b6104d0818561047d565b93506104e0818560208601610488565b80840191505092915050565b60006104f7826103bd565b9150610503828561040f565b6004820191506105128261044f565b915061051e82846104bb565b9150819050939250505056fea2646970667358221220375f7694921937c36801d65c7faf5a0f285b3c4092378c4de800dca53ce0133764736f6c63430008090033",
  "linkReferences": {},
  "deployedLinkReferences": {}
}